{
    "_format": "hh-sol-artifact-1",
    "contractName": "WhitelistedToken",
    "sourceName": "contracts/RamMint.sol",
    "abi": [
        {
            "inputs": [
                {
                    "internalType": "string",
                    "name": "name",
                    "type": "string"
                },
                {
                    "internalType": "string",
                    "name": "symbol",
                    "type": "string"
                }
            ],
            "stateMutability": "nonpayable",
            "type": "constructor"
        },
        {
            "inputs": [
                {
                    "internalType": "address",
                    "name": "spender",
                    "type": "address"
                },
                {
                    "internalType": "uint256",
                    "name": "allowance",
                    "type": "uint256"
                },
                {
                    "internalType": "uint256",
                    "name": "needed",
                    "type": "uint256"
                }
            ],
            "name": "ERC20InsufficientAllowance",
            "type": "error"
        },
        {
            "inputs": [
                {
                    "internalType": "address",
                    "name": "sender",
                    "type": "address"
                },
                {
                    "internalType": "uint256",
                    "name": "balance",
                    "type": "uint256"
                },
                {
                    "internalType": "uint256",
                    "name": "needed",
                    "type": "uint256"
                }
            ],
            "name": "ERC20InsufficientBalance",
            "type": "error"
        },
        {
            "inputs": [
                {
                    "internalType": "address",
                    "name": "approver",
                    "type": "address"
                }
            ],
            "name": "ERC20InvalidApprover",
            "type": "error"
        },
        {
            "inputs": [
                {
                    "internalType": "address",
                    "name": "receiver",
                    "type": "address"
                }
            ],
            "name": "ERC20InvalidReceiver",
            "type": "error"
        },
        {
            "inputs": [
                {
                    "internalType": "address",
                    "name": "sender",
                    "type": "address"
                }
            ],
            "name": "ERC20InvalidSender",
            "type": "error"
        },
        {
            "inputs": [
                {
                    "internalType": "address",
                    "name": "spender",
                    "type": "address"
                }
            ],
            "name": "ERC20InvalidSpender",
            "type": "error"
        },
        {
            "inputs": [
                {
                    "internalType": "address",
                    "name": "owner",
                    "type": "address"
                }
            ],
            "name": "OwnableInvalidOwner",
            "type": "error"
        },
        {
            "inputs": [
                {
                    "internalType": "address",
                    "name": "account",
                    "type": "address"
                }
            ],
            "name": "OwnableUnauthorizedAccount",
            "type": "error"
        },
        {
            "anonymous": false,
            "inputs": [
                {
                    "indexed": true,
                    "internalType": "address",
                    "name": "owner",
                    "type": "address"
                },
                {
                    "indexed": true,
                    "internalType": "address",
                    "name": "spender",
                    "type": "address"
                },
                {
                    "indexed": false,
                    "internalType": "uint256",
                    "name": "value",
                    "type": "uint256"
                }
            ],
            "name": "Approval",
            "type": "event"
        },
        {
            "anonymous": false,
            "inputs": [
                {
                    "indexed": true,
                    "internalType": "address",
                    "name": "previousOwner",
                    "type": "address"
                },
                {
                    "indexed": true,
                    "internalType": "address",
                    "name": "newOwner",
                    "type": "address"
                }
            ],
            "name": "OwnershipTransferred",
            "type": "event"
        },
        {
            "anonymous": false,
            "inputs": [
                {
                    "indexed": true,
                    "internalType": "address",
                    "name": "from",
                    "type": "address"
                },
                {
                    "indexed": true,
                    "internalType": "address",
                    "name": "to",
                    "type": "address"
                },
                {
                    "indexed": false,
                    "internalType": "uint256",
                    "name": "value",
                    "type": "uint256"
                }
            ],
            "name": "Transfer",
            "type": "event"
        },
        {
            "inputs": [
                {
                    "internalType": "address",
                    "name": "owner",
                    "type": "address"
                },
                {
                    "internalType": "address",
                    "name": "spender",
                    "type": "address"
                }
            ],
            "name": "allowance",
            "outputs": [
                {
                    "internalType": "uint256",
                    "name": "",
                    "type": "uint256"
                }
            ],
            "stateMutability": "view",
            "type": "function"
        },
        {
            "inputs": [
                {
                    "internalType": "address",
                    "name": "spender",
                    "type": "address"
                },
                {
                    "internalType": "uint256",
                    "name": "value",
                    "type": "uint256"
                }
            ],
            "name": "approve",
            "outputs": [
                {
                    "internalType": "bool",
                    "name": "",
                    "type": "bool"
                }
            ],
            "stateMutability": "nonpayable",
            "type": "function"
        },
        {
            "inputs": [
                {
                    "internalType": "address",
                    "name": "account",
                    "type": "address"
                }
            ],
            "name": "balanceOf",
            "outputs": [
                {
                    "internalType": "uint256",
                    "name": "",
                    "type": "uint256"
                }
            ],
            "stateMutability": "view",
            "type": "function"
        },
        {
            "inputs": [],
            "name": "decimals",
            "outputs": [
                {
                    "internalType": "uint8",
                    "name": "",
                    "type": "uint8"
                }
            ],
            "stateMutability": "view",
            "type": "function"
        },
        {
            "inputs": [
                {
                    "internalType": "uint256",
                    "name": "amount",
                    "type": "uint256"
                }
            ],
            "name": "distributeToWhitelist",
            "outputs": [],
            "stateMutability": "nonpayable",
            "type": "function"
        },
        {
            "inputs": [],
            "name": "getWhitelistedAccounts",
            "outputs": [
                {
                    "internalType": "address[]",
                    "name": "",
                    "type": "address[]"
                }
            ],
            "stateMutability": "view",
            "type": "function"
        },
        {
            "inputs": [],
            "name": "lockTransfer",
            "outputs": [],
            "stateMutability": "nonpayable",
            "type": "function"
        },
        {
            "inputs": [
                {
                    "internalType": "address",
                    "name": "to",
                    "type": "address"
                },
                {
                    "internalType": "uint256",
                    "name": "amount",
                    "type": "uint256"
                }
            ],
            "name": "mint",
            "outputs": [],
            "stateMutability": "nonpayable",
            "type": "function"
        },
        {
            "inputs": [],
            "name": "name",
            "outputs": [
                {
                    "internalType": "string",
                    "name": "",
                    "type": "string"
                }
            ],
            "stateMutability": "view",
            "type": "function"
        },
        {
            "inputs": [],
            "name": "owner",
            "outputs": [
                {
                    "internalType": "address",
                    "name": "",
                    "type": "address"
                }
            ],
            "stateMutability": "view",
            "type": "function"
        },
        {
            "inputs": [],
            "name": "renounceOwnership",
            "outputs": [],
            "stateMutability": "nonpayable",
            "type": "function"
        },
        {
            "inputs": [],
            "name": "symbol",
            "outputs": [
                {
                    "internalType": "string",
                    "name": "",
                    "type": "string"
                }
            ],
            "stateMutability": "view",
            "type": "function"
        },
        {
            "inputs": [],
            "name": "totalSupply",
            "outputs": [
                {
                    "internalType": "uint256",
                    "name": "",
                    "type": "uint256"
                }
            ],
            "stateMutability": "view",
            "type": "function"
        },
        {
            "inputs": [
                {
                    "internalType": "address",
                    "name": "to",
                    "type": "address"
                },
                {
                    "internalType": "uint256",
                    "name": "value",
                    "type": "uint256"
                }
            ],
            "name": "transfer",
            "outputs": [
                {
                    "internalType": "bool",
                    "name": "",
                    "type": "bool"
                }
            ],
            "stateMutability": "nonpayable",
            "type": "function"
        },
        {
            "inputs": [
                {
                    "internalType": "address",
                    "name": "from",
                    "type": "address"
                },
                {
                    "internalType": "address",
                    "name": "to",
                    "type": "address"
                },
                {
                    "internalType": "uint256",
                    "name": "value",
                    "type": "uint256"
                }
            ],
            "name": "transferFrom",
            "outputs": [
                {
                    "internalType": "bool",
                    "name": "",
                    "type": "bool"
                }
            ],
            "stateMutability": "nonpayable",
            "type": "function"
        },
        {
            "inputs": [
                {
                    "internalType": "address",
                    "name": "newOwner",
                    "type": "address"
                }
            ],
            "name": "transferOwnership",
            "outputs": [],
            "stateMutability": "nonpayable",
            "type": "function"
        },
        {
            "inputs": [],
            "name": "unlockTransfer",
            "outputs": [],
            "stateMutability": "nonpayable",
            "type": "function"
        },
        {
            "inputs": [
                {
                    "internalType": "address",
                    "name": "account",
                    "type": "address"
                }
            ],
            "name": "unwhitelistAccount",
            "outputs": [],
            "stateMutability": "nonpayable",
            "type": "function"
        },
        {
            "inputs": [
                {
                    "internalType": "address",
                    "name": "account",
                    "type": "address"
                }
            ],
            "name": "whitelistAccount",
            "outputs": [],
            "stateMutability": "nonpayable",
            "type": "function"
        }
    ],
    "bytecode": "0x60806040523480156200001157600080fd5b50604051620024ee380380620024ee833981810160405281019062000037919062000348565b33828281600390816200004b919062000618565b5080600490816200005d919062000618565b505050600073ffffffffffffffffffffffffffffffffffffffff168173ffffffffffffffffffffffffffffffffffffffff1603620000d55760006040517f1e4fbdf7000000000000000000000000000000000000000000000000000000008152600401620000cc919062000744565b60405180910390fd5b620000e681620000ef60201b60201c565b50505062000761565b6000600560009054906101000a900473ffffffffffffffffffffffffffffffffffffffff16905081600560006101000a81548173ffffffffffffffffffffffffffffffffffffffff021916908373ffffffffffffffffffffffffffffffffffffffff1602179055508173ffffffffffffffffffffffffffffffffffffffff168173ffffffffffffffffffffffffffffffffffffffff167f8be0079c531659141344cd1fd0a4f28419497f9722a3daafe3b4186f6b6457e060405160405180910390a35050565b6000604051905090565b600080fd5b600080fd5b600080fd5b600080fd5b6000601f19601f8301169050919050565b7f4e487b7100000000000000000000000000000000000000000000000000000000600052604160045260246000fd5b6200021e82620001d3565b810181811067ffffffffffffffff8211171562000240576200023f620001e4565b5b80604052505050565b600062000255620001b5565b905062000263828262000213565b919050565b600067ffffffffffffffff821115620002865762000285620001e4565b5b6200029182620001d3565b9050602081019050919050565b60005b83811015620002be578082015181840152602081019050620002a1565b60008484015250505050565b6000620002e1620002db8462000268565b62000249565b9050828152602081018484840111156200030057620002ff620001ce565b5b6200030d8482856200029e565b509392505050565b600082601f8301126200032d576200032c620001c9565b5b81516200033f848260208601620002ca565b91505092915050565b60008060408385031215620003625762000361620001bf565b5b600083015167ffffffffffffffff811115620003835762000382620001c4565b5b620003918582860162000315565b925050602083015167ffffffffffffffff811115620003b557620003b4620001c4565b5b620003c38582860162000315565b9150509250929050565b600081519050919050565b7f4e487b7100000000000000000000000000000000000000000000000000000000600052602260045260246000fd5b600060028204905060018216806200042057607f821691505b602082108103620004365762000435620003d8565b5b50919050565b60008190508160005260206000209050919050565b60006020601f8301049050919050565b600082821b905092915050565b600060088302620004a07fffffffffffffffffffffffffffffffffffffffffffffffffffffffffffffffff8262000461565b620004ac868362000461565b95508019841693508086168417925050509392505050565b6000819050919050565b6000819050919050565b6000620004f9620004f3620004ed84620004c4565b620004ce565b620004c4565b9050919050565b6000819050919050565b6200051583620004d8565b6200052d620005248262000500565b8484546200046e565b825550505050565b600090565b6200054462000535565b620005518184846200050a565b505050565b5b8181101562000579576200056d6000826200053a565b60018101905062000557565b5050565b601f821115620005c85762000592816200043c565b6200059d8462000451565b81016020851015620005ad578190505b620005c5620005bc8562000451565b83018262000556565b50505b505050565b600082821c905092915050565b6000620005ed60001984600802620005cd565b1980831691505092915050565b6000620006088383620005da565b9150826002028217905092915050565b6200062382620003cd565b67ffffffffffffffff8111156200063f576200063e620001e4565b5b6200064b825462000407565b620006588282856200057d565b600060209050601f8311600181146200069057600084156200067b578287015190505b620006878582620005fa565b865550620006f7565b601f198416620006a0866200043c565b60005b82811015620006ca57848901518255600182019150602085019450602081019050620006a3565b86831015620006ea5784890151620006e6601f891682620005da565b8355505b6001600288020188555050505b505050505050565b600073ffffffffffffffffffffffffffffffffffffffff82169050919050565b60006200072c82620006ff565b9050919050565b6200073e816200071f565b82525050565b60006020820190506200075b600083018462000733565b92915050565b611d7d80620007716000396000f3fe608060405234801561001057600080fd5b50600436106101215760003560e01c806363e0c2f8116100ad578063a9059cbb11610071578063a9059cbb146102d2578063ae3e3e5e14610302578063bf6d9abd1461031e578063dd62ed3e14610328578063f2fde38b1461035857610121565b806363e0c2f81461024057806370a082311461025c578063715018a61461028c5780638da5cb5b1461029657806395d89b41146102b457610121565b806323b872dd116100f457806323b872dd1461019c578063313ce567146101cc57806340c10f19146101ea578063469a38b3146102065780635c9c66c61461022257610121565b806306fdde0314610126578063095ea7b31461014457806318160ddd146101745780631a9aea0a14610192575b600080fd5b61012e610374565b60405161013b9190611548565b60405180910390f35b61015e60048036038101906101599190611603565b610406565b60405161016b919061165e565b60405180910390f35b61017c610429565b6040516101899190611688565b60405180910390f35b61019a610433565b005b6101b660048036038101906101b191906116a3565b610458565b6040516101c3919061165e565b60405180910390f35b6101d46104be565b6040516101e19190611712565b60405180910390f35b61020460048036038101906101ff9190611603565b6104c7565b005b610220600480360381019061021b919061172d565b6104dd565b005b61022a610653565b6040516102379190611818565b60405180910390f35b61025a6004803603810190610255919061183a565b6106e1565b005b6102766004803603810190610271919061183a565b610798565b6040516102839190611688565b60405180910390f35b6102946107e0565b005b61029e6107f4565b6040516102ab9190611876565b60405180910390f35b6102bc61081e565b6040516102c99190611548565b60405180910390f35b6102ec60048036038101906102e79190611603565b6108b0565b6040516102f9919061165e565b60405180910390f35b61031c6004803603810190610317919061183a565b610914565b005b610326610970565b005b610342600480360381019061033d9190611891565b610995565b60405161034f9190611688565b60405180910390f35b610372600480360381019061036d919061183a565b610a1c565b005b60606003805461038390611900565b80601f01602080910402602001604051908101604052809291908181526020018280546103af90611900565b80156103fc5780601f106103d1576101008083540402835291602001916103fc565b820191906000526020600020905b8154815290600101906020018083116103df57829003601f168201915b5050505050905090565b600080610411610aa2565b905061041e818585610aaa565b600191505092915050565b6000600254905090565b61043b610abc565b6001600760006101000a81548160ff021916908315150217905550565b6000600760009054906101000a900460ff16156104aa576040517f08c379a00000000000000000000000000000000000000000000000000000000081526004016104a1906119a3565b60405180910390fd5b6104b5848484610b43565b90509392505050565b60006012905090565b6104cf610abc565b6104d98282610b72565b5050565b6104e5610abc565b60006006805490501161052d576040517f08c379a000000000000000000000000000000000000000000000000000000000815260040161052490611a0f565b60405180910390fd5b60008111610570576040517f08c379a000000000000000000000000000000000000000000000000000000000815260040161056790611a7b565b60405180910390fd5b600760009054906101000a900460ff16156105c0576040517f08c379a00000000000000000000000000000000000000000000000000000000081526004016105b7906119a3565b60405180910390fd5b6000600680549050826105d39190611af9565b905060005b60068054905081101561064e576000600682815481106105fb576105fa611b2a565b5b9060005260206000200160009054906101000a900473ffffffffffffffffffffffffffffffffffffffff16905061063a6106336107f4565b8285610bf4565b50808061064690611b59565b9150506105d8565b505050565b606060068054806020026020016040519081016040528092919081815260200182805480156106d757602002820191906000526020600020905b8160009054906101000a900473ffffffffffffffffffffffffffffffffffffffff1673ffffffffffffffffffffffffffffffffffffffff168152602001906001019080831161068d575b5050505050905090565b6106e9610abc565b6106f281610ce8565b15610732576040517f08c379a000000000000000000000000000000000000000000000000000000000815260040161072990611bed565b60405180910390fd5b6006819080600181540180825580915050600190039060005260206000200160009091909190916101000a81548173ffffffffffffffffffffffffffffffffffffffff021916908373ffffffffffffffffffffffffffffffffffffffff16021790555050565b60008060008373ffffffffffffffffffffffffffffffffffffffff1673ffffffffffffffffffffffffffffffffffffffff168152602001908152602001600020549050919050565b6107e8610abc565b6107f26000610d96565b565b6000600560009054906101000a900473ffffffffffffffffffffffffffffffffffffffff16905090565b60606004805461082d90611900565b80601f016020809104026020016040519081016040528092919081815260200182805461085990611900565b80156108a65780601f1061087b576101008083540402835291602001916108a6565b820191906000526020600020905b81548152906001019060200180831161088957829003601f168201915b5050505050905090565b6000600760009054906101000a900460ff1615610902576040517f08c379a00000000000000000000000000000000000000000000000000000000081526004016108f9906119a3565b60405180910390fd5b61090c8383610e5c565b905092915050565b61091c610abc565b61092581610ce8565b610964576040517f08c379a000000000000000000000000000000000000000000000000000000000815260040161095b90611c59565b60405180910390fd5b61096d81610e7f565b50565b610978610abc565b6000600760006101000a81548160ff021916908315150217905550565b6000600160008473ffffffffffffffffffffffffffffffffffffffff1673ffffffffffffffffffffffffffffffffffffffff16815260200190815260200160002060008373ffffffffffffffffffffffffffffffffffffffff1673ffffffffffffffffffffffffffffffffffffffff16815260200190815260200160002054905092915050565b610a24610abc565b600073ffffffffffffffffffffffffffffffffffffffff168173ffffffffffffffffffffffffffffffffffffffff1603610a965760006040517f1e4fbdf7000000000000000000000000000000000000000000000000000000008152600401610a8d9190611876565b60405180910390fd5b610a9f81610d96565b50565b600033905090565b610ab78383836001611028565b505050565b610ac4610aa2565b73ffffffffffffffffffffffffffffffffffffffff16610ae26107f4565b73ffffffffffffffffffffffffffffffffffffffff1614610b4157610b05610aa2565b6040517f118cdaa7000000000000000000000000000000000000000000000000000000008152600401610b389190611876565b60405180910390fd5b565b600080610b4e610aa2565b9050610b5b8582856111ff565b610b66858585610bf4565b60019150509392505050565b600073ffffffffffffffffffffffffffffffffffffffff168273ffffffffffffffffffffffffffffffffffffffff1603610be45760006040517fec442f05000000000000000000000000000000000000000000000000000000008152600401610bdb9190611876565b60405180910390fd5b610bf060008383611293565b5050565b600073ffffffffffffffffffffffffffffffffffffffff168373ffffffffffffffffffffffffffffffffffffffff1603610c665760006040517f96c6fd1e000000000000000000000000000000000000000000000000000000008152600401610c5d9190611876565b60405180910390fd5b600073ffffffffffffffffffffffffffffffffffffffff168273ffffffffffffffffffffffffffffffffffffffff1603610cd85760006040517fec442f05000000000000000000000000000000000000000000000000000000008152600401610ccf9190611876565b60405180910390fd5b610ce3838383611293565b505050565b600080600090505b600680549050811015610d8b578273ffffffffffffffffffffffffffffffffffffffff1660068281548110610d2857610d27611b2a565b5b9060005260206000200160009054906101000a900473ffffffffffffffffffffffffffffffffffffffff1673ffffffffffffffffffffffffffffffffffffffff1603610d78576001915050610d91565b8080610d8390611b59565b915050610cf0565b50600090505b919050565b6000600560009054906101000a900473ffffffffffffffffffffffffffffffffffffffff16905081600560006101000a81548173ffffffffffffffffffffffffffffffffffffffff021916908373ffffffffffffffffffffffffffffffffffffffff1602179055508173ffffffffffffffffffffffffffffffffffffffff168173ffffffffffffffffffffffffffffffffffffffff167f8be0079c531659141344cd1fd0a4f28419497f9722a3daafe3b4186f6b6457e060405160405180910390a35050565b600080610e67610aa2565b9050610e74818585610bf4565b600191505092915050565b60005b600680549050811015611024578173ffffffffffffffffffffffffffffffffffffffff1660068281548110610eba57610eb9611b2a565b5b9060005260206000200160009054906101000a900473ffffffffffffffffffffffffffffffffffffffff1673ffffffffffffffffffffffffffffffffffffffff1603611011576001600680549050610f129190611c79565b8114610fc55760066001600680549050610f2c9190611c79565b81548110610f3d57610f3c611b2a565b5b9060005260206000200160009054906101000a900473ffffffffffffffffffffffffffffffffffffffff1660068281548110610f7c57610f7b611b2a565b5b9060005260206000200160006101000a81548173ffffffffffffffffffffffffffffffffffffffff021916908373ffffffffffffffffffffffffffffffffffffffff1602179055505b6006805480610fd757610fd6611cad565b5b6001900381819060005260206000200160006101000a81549073ffffffffffffffffffffffffffffffffffffffff02191690559055611024565b808061101c90611b59565b915050610e82565b5050565b600073ffffffffffffffffffffffffffffffffffffffff168473ffffffffffffffffffffffffffffffffffffffff160361109a5760006040517fe602df050000000000000000000000000000000000000000000000000000000081526004016110919190611876565b60405180910390fd5b600073ffffffffffffffffffffffffffffffffffffffff168373ffffffffffffffffffffffffffffffffffffffff160361110c5760006040517f94280d620000000000000000000000000000000000000000000000000000000081526004016111039190611876565b60405180910390fd5b81600160008673ffffffffffffffffffffffffffffffffffffffff1673ffffffffffffffffffffffffffffffffffffffff16815260200190815260200160002060008573ffffffffffffffffffffffffffffffffffffffff1673ffffffffffffffffffffffffffffffffffffffff1681526020019081526020016000208190555080156111f9578273ffffffffffffffffffffffffffffffffffffffff168473ffffffffffffffffffffffffffffffffffffffff167f8c5be1e5ebec7d5bd14f71427d1e84f3dd0314c0f7b2291e5b200ac8c7c3b925846040516111f09190611688565b60405180910390a35b50505050565b600061120b8484610995565b90507fffffffffffffffffffffffffffffffffffffffffffffffffffffffffffffffff811461128d578181101561127d578281836040517ffb8f41b200000000000000000000000000000000000000000000000000000000815260040161127493929190611cdc565b60405180910390fd5b61128c84848484036000611028565b5b50505050565b600073ffffffffffffffffffffffffffffffffffffffff168373ffffffffffffffffffffffffffffffffffffffff16036112e55780600260008282546112d99190611d13565b925050819055506113b8565b60008060008573ffffffffffffffffffffffffffffffffffffffff1673ffffffffffffffffffffffffffffffffffffffff16815260200190815260200160002054905081811015611371578381836040517fe450d38c00000000000000000000000000000000000000000000000000000000815260040161136893929190611cdc565b60405180910390fd5b8181036000808673ffffffffffffffffffffffffffffffffffffffff1673ffffffffffffffffffffffffffffffffffffffff16815260200190815260200160002081905550505b600073ffffffffffffffffffffffffffffffffffffffff168273ffffffffffffffffffffffffffffffffffffffff1603611401578060026000828254039250508190555061144e565b806000808473ffffffffffffffffffffffffffffffffffffffff1673ffffffffffffffffffffffffffffffffffffffff168152602001908152602001600020600082825401925050819055505b8173ffffffffffffffffffffffffffffffffffffffff168373ffffffffffffffffffffffffffffffffffffffff167fddf252ad1be2c89b69c2b068fc378daa952ba7f163c4a11628f55a4df523b3ef836040516114ab9190611688565b60405180910390a3505050565b600081519050919050565b600082825260208201905092915050565b60005b838110156114f25780820151818401526020810190506114d7565b60008484015250505050565b6000601f19601f8301169050919050565b600061151a826114b8565b61152481856114c3565b93506115348185602086016114d4565b61153d816114fe565b840191505092915050565b60006020820190508181036000830152611562818461150f565b905092915050565b600080fd5b600073ffffffffffffffffffffffffffffffffffffffff82169050919050565b600061159a8261156f565b9050919050565b6115aa8161158f565b81146115b557600080fd5b50565b6000813590506115c7816115a1565b92915050565b6000819050919050565b6115e0816115cd565b81146115eb57600080fd5b50565b6000813590506115fd816115d7565b92915050565b6000806040838503121561161a5761161961156a565b5b6000611628858286016115b8565b9250506020611639858286016115ee565b9150509250929050565b60008115159050919050565b61165881611643565b82525050565b6000602082019050611673600083018461164f565b92915050565b611682816115cd565b82525050565b600060208201905061169d6000830184611679565b92915050565b6000806000606084860312156116bc576116bb61156a565b5b60006116ca868287016115b8565b93505060206116db868287016115b8565b92505060406116ec868287016115ee565b9150509250925092565b600060ff82169050919050565b61170c816116f6565b82525050565b60006020820190506117276000830184611703565b92915050565b6000602082840312156117435761174261156a565b5b6000611751848285016115ee565b91505092915050565b600081519050919050565b600082825260208201905092915050565b6000819050602082019050919050565b61178f8161158f565b82525050565b60006117a18383611786565b60208301905092915050565b6000602082019050919050565b60006117c58261175a565b6117cf8185611765565b93506117da83611776565b8060005b8381101561180b5781516117f28882611795565b97506117fd836117ad565b9250506001810190506117de565b5085935050505092915050565b6000602082019050818103600083015261183281846117ba565b905092915050565b6000602082840312156118505761184f61156a565b5b600061185e848285016115b8565b91505092915050565b6118708161158f565b82525050565b600060208201905061188b6000830184611867565b92915050565b600080604083850312156118a8576118a761156a565b5b60006118b6858286016115b8565b92505060206118c7858286016115b8565b9150509250929050565b7f4e487b7100000000000000000000000000000000000000000000000000000000600052602260045260246000fd5b6000600282049050600182168061191857607f821691505b60208210810361192b5761192a6118d1565b5b50919050565b7f546f6b656e207472616e736665722069732063757272656e746c79206c6f636b60008201527f6564000000000000000000000000000000000000000000000000000000000000602082015250565b600061198d6022836114c3565b915061199882611931565b604082019050919050565b600060208201905081810360008301526119bc81611980565b9050919050565b7f4e6f2077686974656c6973746564206163636f756e74732070726f7669646564600082015250565b60006119f96020836114c3565b9150611a04826119c3565b602082019050919050565b60006020820190508181036000830152611a28816119ec565b9050919050565b7f416d6f756e74206d7573742062652067726561746572207468616e2030000000600082015250565b6000611a65601d836114c3565b9150611a7082611a2f565b602082019050919050565b60006020820190508181036000830152611a9481611a58565b9050919050565b7f4e487b7100000000000000000000000000000000000000000000000000000000600052601260045260246000fd5b7f4e487b7100000000000000000000000000000000000000000000000000000000600052601160045260246000fd5b6000611b04826115cd565b9150611b0f836115cd565b925082611b1f57611b1e611a9b565b5b828204905092915050565b7f4e487b7100000000000000000000000000000000000000000000000000000000600052603260045260246000fd5b6000611b64826115cd565b91507fffffffffffffffffffffffffffffffffffffffffffffffffffffffffffffffff8203611b9657611b95611aca565b5b600182019050919050565b7f4163636f756e7420616c72656164792077686974656c69737465640000000000600082015250565b6000611bd7601b836114c3565b9150611be282611ba1565b602082019050919050565b60006020820190508181036000830152611c0681611bca565b9050919050565b7f4163636f756e74206e6f742077686974656c6973746564000000000000000000600082015250565b6000611c436017836114c3565b9150611c4e82611c0d565b602082019050919050565b60006020820190508181036000830152611c7281611c36565b9050919050565b6000611c84826115cd565b9150611c8f836115cd565b9250828203905081811115611ca757611ca6611aca565b5b92915050565b7f4e487b7100000000000000000000000000000000000000000000000000000000600052603160045260246000fd5b6000606082019050611cf16000830186611867565b611cfe6020830185611679565b611d0b6040830184611679565b949350505050565b6000611d1e826115cd565b9150611d29836115cd565b9250828201905080821115611d4157611d40611aca565b5b9291505056fea2646970667358221220ff0758ecc0bb195d2bb9e83a281a06f35ef69ee56658a1187ac9f44b7ef4a10064736f6c63430008140033",
    "linkReferences": {},
    "deployedLinkReferences": {}
}